:020000040800F2
:100000000000042085420008D93F0008E13F0008B5
:10001000E93F0008F13F0008F93F00080000000038
:100020000000000000000000000000000140000887
:100030000F400008000000001D4000082B40000891
:10004000D5420008D5420008D5420008D542000834
:10005000D5420008D5420008D5420008D542000824
:10006000D5420008D5420008374000084540000846
:10007000D5420008D5420008D54200085940000882
:100080006D40000881400008D5420008D5420008B4
:10009000D5420008D5420008D5420008D5420008E4
:1000A000D5420008D5420008D5420008D5420008D4
:1000B00095400008A9400008BD400008D54200084E
:1000C000D5420008D5420008D5420008D1400008BA
:1000D000D5420008D5420008D5420008E540000896
:1000E000D5420008D5420008D5420008D542000894
:1000F000D5420008D5420008D5420008D542000884
:10010000D5420008D5420008D5420008D542000873
:10011000D5420008D5420008D5420008D542000863
:10012000D5420008D5420008D5420008D542000853
:10013000D5420008000000000000000000000000A0
:10014000000000000000000000000000F94000086E
:10015000D5420008D5420008D5420008D542000823
:10016000D5420008D5420008D5420008D542000813
:10017000D5420008D5420008000000000000000041
:10018000D5420008D5420008D5420008D5420008F3
:10019000D5420008D542000800000000D542000802
:1001A000000000000000000000000000D542000830
:1001B000D5420008D5420008000000000000000001
:1001C000000000000000000000000000000000002F
:1001D000000000000000000000000000D542000800
:1001E00010B5054C237833B9044B13B10448AFF371
:1001F00000800123237010BD3803002000000000A0
:100200000854010808B5034B1BB103490348AFF379
:10021000008008BD000000003C03002008540108D5
:1002200010F8012B11F8013B012A28BF9A42F7D0A0
:10023000D01A70470000000000000000000000001D
:1002400001F0FF01102A2BDB10F0070F08D010F887
:10025000013B013A8B422DD010F0070F42B3F6D18B
:10026000F0B441EA012141EA014122F007047FF0A4
:1002700000070023F0E80256083C85EA010586EAFB
:10028000010685FA47F5A3FA87F586FA47F6A5FA37
:1002900087F68EB9EED1F0BC01F0FF0102F0070243
:1002A00032B110F8013B013A83EA010313B1F8D1EE
:1002B0000020704701387047002D06BF35460338CF
:1002C000073815F0010F07D1013015F4807F02BF08
:1002D000013015F4C03F0130F0BC0138704700BF59
:1002E000034613F8012B002AFBD1181A0138704776
:1002F00081F0004102E000BF83F0004330B54FEAD7
:1003000041044FEA430594EA050F08BF90EA020F43
:100310001FBF54EA000C55EA020C7FEA645C7FEAD6
:10032000655C00F0E2804FEA5454D4EB5555B8BFF9
:100330006D420CDD2C4480EA020281EA030382EA6A
:10034000000083EA010180EA020281EA0303362DFC
:1003500088BF30BD11F0004F4FEA01314FF4801CCF
:100360004CEA113102D0404261EB410113F0004FE1
:100370004FEA03334CEA133302D0524263EB430398
:1003800094EA050F00F0A780A4F10104D5F1200E36
:100390000DDB02FA0EFC22FA05F2801841F1000191
:1003A00003FA0EF2801843FA05F359410EE0A5F165
:1003B00020050EF1200E012A03FA0EFC28BF4CF096
:1003C000020C43FA05F3C01851EBE37101F000454C
:1003D00007D54FF0000EDCF1000C7EEB00006EEB59
:1003E0000101B1F5801F1BD3B1F5001F0CD34908E3
:1003F0005FEA30004FEA3C0C04F101044FEA44523A
:1004000012F5800F80F09A80BCF1004F08BF5FEAC0
:10041000500C50F1000041EB045141EA050130BDA0
:100420005FEA4C0C404141EB0101013C28BFB1F5B2
:10043000801FE9D291F0000F04BF01460020B1FAFD
:1004400081F308BF2033A3F10B03B3F120020CDAD0
:100450000C3208DD02F1140CC2F10C0201FA0CF0AE
:1004600021FA02F10CE002F11402D8BFC2F1200C13
:1004700001FA02F120FA0CFCDCBF41EA0C019040C9
:10048000E41AA2BF01EB0451294330BD6FEA040412
:100490001F3C1CDA0C340EDC04F11404C4F12002FD
:1004A00020FA04F001FA02F340EA030021FA04F30F
:1004B00045EA030130BDC4F10C04C4F1200220FA66
:1004C00002F001FA04F340EA0300294630BD21FAA4
:1004D00004F0294630BD94F0000F83F4801306BF6A
:1004E00081F480110134013D4EE77FEA645C18BF5E
:1004F0007FEA655C29D094EA050F08BF90EA020FF5
:1005000005D054EA000C04BF1946104630BD91EAEC
:10051000030F1EBF0021002030BD5FEA545C05D1EF
:100520004000494128BF41F0004130BD14F580042E
:100530003CBF01F5801130BD01F0004545F0FE41A2
:1005400041F470014FF0000030BD7FEA645C1ABFD7
:10055000194610467FEA655C1CBF0B46024650EA0E
:10056000013406BF52EA033591EA030F41F400213A
:1005700030BD00BF90F0000F04BF0021704730B5C0
:100580004FF4806404F132044FF000054FF0000195
:1005900050E700BF90F0000F04BF0021704730B556
:1005A0004FF4806404F1320410F0004548BF40422B
:1005B0004FF000013EE700BF42004FEAE2014FEA80
:1005C00031014FEA02701FBF12F07F4393F07F4F5B
:1005D00081F06051704732F07F4208BF704793F05E
:1005E0007F4F04BF41F40021704730B54FF4607471
:1005F00001F0004521F000411CE700BF50EA010274
:1006000008BF704730B54FF000050AE050EA01021C
:1006100008BF704730B511F0004502D5404261EB8C
:1006200041014FF4806404F132045FEA915C3FF4CD
:10063000D8AE4FF003025FEADC0C18BF03325FEA6A
:10064000DC0C18BF033202EBDC02C2F1200300FA1B
:1006500003FC20FA02F001FA03FE40EA0E0021FA40
:1006600002F11444BDE600BF70B54FF0FF0C4CF42E
:10067000E06C1CEA11541DBF1CEA135594EA0C0FE0
:1006800095EA0C0F00F0DEF82C4481EA030621EA1B
:100690004C5123EA4C5350EA013518BF52EA033556
:1006A00041F4801143F4801338D0A0FB02CE4FF008
:1006B0000005E1FB02E506F00042E0FB03E54FF038
:1006C0000006E1FB03569CF0000F18BF4EF0010E30
:1006D000A4F1FF04B6F5007F64F5407404D25FEA2C
:1006E0004E0E6D4146EB060642EAC62141EA5551DF
:1006F0004FEAC52040EA5E504FEACE2EB4F1FD0C21
:1007000088BFBCF5E06F1ED8BEF1004F08BF5FEA9E
:10071000500E50F1000041EB045170BD06F0004650
:1007200046EA010140EA020081EA0301B4EB5C04FD
:10073000C2BFD4EB0C0541EA045170BD41F48011F5
:100740004FF0000E013C00F3AB8014F1360FDEBF1A
:10075000002001F0004170BDC4F10004203C35DAF6
:100760000C341BDC04F11404C4F1200500FA05F379
:1007700020FA04F001FA05F240EA020001F000421A
:1007800021F0004110EBD37021FA04F642EB060190
:100790005EEA430E08BF20EAD37070BDC4F10C04BA
:1007A000C4F1200500FA04F320FA05F001FA04F27E
:1007B00040EA020001F0004110EBD37041F100016A
:1007C0005EEA430E08BF20EAD37070BDC4F1200575
:1007D00000FA05F24EEA020E20FA04F301FA05F2DD
:1007E00043EA020321FA04F001F0004121FA04F285
:1007F00020EA020000EBD3705EEA430E08BF20EA55
:10080000D37070BD94F0000F0FD101F0004640008E
:1008100041EB010111F4801F08BF013CF7D041EA10
:10082000060195F0000F18BF704703F00046520014
:1008300043EB030313F4801F08BF013DF7D043EAE5
:100840000603704794EA0C0F0CEA135518BF95EA9B
:100850000C0F0CD050EA410618BF52EA4306D1D122
:1008600081EA030101F000414FF0000070BD50EA41
:10087000410606BF1046194652EA430619D094EACB
:100880000C0F02D150EA013613D195EA0C0F05D1B5
:1008900052EA03361CBF104619460AD181EA030109
:1008A00001F0004141F0FE4141F470014FF00000C1
:1008B00070BD41F0FE4141F4780170BD70B54FF05C
:1008C000FF0C4CF4E06C1CEA11541DBF1CEA1355DC
:1008D00094EA0C0F95EA0C0F00F0A7F8A4EB0504BE
:1008E00081EA030E52EA03354FEA013100F08880B5
:1008F0004FEA03334FF0805545EA131343EA12637E
:100900004FEA022245EA111545EA10654FEA002632
:100910000EF000419D4208BF964244F1FD0404F5EB
:10092000407402D25B084FEA3202B61A65EB030547
:100930005B084FEA32024FF480104FF4002CB6EB04
:10094000020E75EB030E22BFB61A754640EA0C0084
:100950005B084FEA3202B6EB020E75EB030E22BFC4
:10096000B61A754640EA5C005B084FEA3202B6EB05
:10097000020E75EB030E22BFB61A754640EA9C00C4
:100980005B084FEA3202B6EB020E75EB030E22BF94
:10099000B61A754640EADC0055EA060E18D04FEA52
:1009A000051545EA16754FEA06164FEAC30343EAF2
:1009B00052734FEAC2025FEA1C1CC0D111F4801FBF
:1009C0000BD141EA00014FF000004FF0004CB6E7B8
:1009D00011F4801F04BF01430020B4F1FD0C88BF57
:1009E000BCF5E06F3FF6AFAEB5EB030C04BFB6EB62
:1009F000020C5FEA500C50F1000041EB045170BD55
:100A00000EF0004E4EEA113114EB5C04C2BFD4EB81
:100A10000C0541EA045170BD41F480114FF0000E05
:100A2000013C90E645EA060E8DE60CEA135594EA81
:100A30000C0F08BF95EA0C0F3FF43BAF94EA0C0F84
:100A40000AD150EA01347FF434AF95EA0C0F7FF4F9
:100A500025AF104619462CE795EA0C0F06D152EA4D
:100A600003353FF4FDAE1046194622E750EA410631
:100A700018BF52EA43067FF4C5AE50EA41047FF442
:100A80000DAF52EA43057FF4EBAE12E74FF0FF3CA7
:100A900006E000BF4FF0010C02E000BF4FF0010C78
:100AA0004DF804CD4FEA410C7FEA6C5C4FEA430CF1
:100AB00018BF7FEA6C5C1BD001B050EA410C0CBF40
:100AC00052EA430C91EA030F02BF90EA020F0020A2
:100AD000704710F1000F91EA030F58BF994208BF09
:100AE00090422CBFD8176FEAE37040F001007047C6
:100AF0004FEA410C7FEA6C5C02D150EA013C07D11D
:100B00004FEA430C7FEA6C5CD6D152EA033CD3D067
:100B10005DF8040B704700BF8446104662468C4661
:100B20001946634600E000BF01B5FFF7B7FF002894
:100B300048BF10F1000F01BD4DF808EDFFF7F4FFBD
:100B40000CBF012000205DF808FB00BF4DF808ED48
:100B5000FFF7EAFF34BF012000205DF808FB00BF6B
:100B60004DF808EDFFF7E0FF94BF012000205DF88D
:100B700008FB00BF4DF808EDFFF7CEFF94BF012042
:100B800000205DF808FB00BF4DF808EDFFF7C4FF3B
:100B900034BF012000205DF808FB00BF4FEA410C84
:100BA0007FEA6C5C02D150EA013C0AD14FEA430C67
:100BB0007FEA6C5C02D152EA033C02D14FF00000A4
:100BC00070474FF0010070474FEA410212F50012E2
:100BD00015D211D56FF47873B3EB625212D94FEA84
:100BE000C12343F0004343EA505311F0004F23FA6E
:100BF00002F018BF404270474FF00000704750EAC3
:100C0000013005D111F0004008BF6FF0004070477F
:100C10004FF00000704700BF4A0011D212F50012D9
:100C200011D20DD56FF47873B3EB62520ED44FEA44
:100C3000C12343F0004343EA505323FA02F07047C4
:100C40004FF00000704750EA013002D14FF0FF3002
:100C500070474FF0000070474FEA4102B2F1E043A5
:100C600024BFB3F5001CDCF1FE5C0DD901F0004C93
:100C70004FEAC0024CEA5070B2F1004F40EB8300E3
:100C800008BF20F00100704711F0804F21D113F10F
:100C90003872BCBF01F00040704741F480114FEA48
:100CA0005252C2F11802C2F1200C10FA0CF320FAD1
:100CB00002F018BF40F001004FEAC1234FEAD323EE
:100CC00003FA0CFC40EA0C0023FA02F34FEA430358
:100CD000CCE77FEA625307D150EA01331EBF4FF0E1
:100CE000FE4040F44000704701F0004040F0FE40FC
:100CF00040F40000704700BF53B94AB9002908BF4B
:100D000000281CBF4FF0FF314FF0FF3000F0A0B9BA
:100D1000ADF1080C6DE904CE00F03CF8DDF804E01C
:100D2000DDE9022304B0704738B5002200230446F1
:100D30000D46FFF70BFF28B920462946BDE838408D
:100D400000F00AB8204605F1004100F005F84042E5
:100D500061EB410138BD00BFD0B50C4B0022064607
:100D60000F46FFF781FCFFF757FF0446FFF702FC31
:100D7000074B0022FFF778FC02460B463046394607
:100D8000FFF7BAFAFFF748FF2146D0BD0000F03D5B
:100D90000000F0412DE9F047089D0C46002B4ED194
:100DA00094468C458646B2FA82F262D94AB1C2F1C3
:100DB0002003914020FA03F30CFA02FC194300FAD5
:100DC00002FE4FEA1C471FFA8CF6B1FBF7F44FEA1C
:100DD0001E4307FB141143EA014304FB06F1994249
:100DE0000AD91CEB030304F1FF3080F01281994211
:100DF00040F20F81023C6344591A1FFA8EF3B1FB93
:100E0000F7F007FB101143EA014300FB06F69E4290
:100E10000AD91CEB030300F1FF3180F0FC809E42F5
:100E200040F2F980634402389B1B40EA04400021F1
:100E30001DB1D3400022C5E90032BDE8F0878B42E6
:100E400005D90DB1C5E9000100210846F5E7B3FA5F
:100E500083F1002946D1A34202D39042C0F0F08032
:100E6000861A64EB03030120002DE6D0C5E9006378
:100E7000E3E7002A40F09080A1EB0C044FEA1C4805
:100E80001FFA8CF70121B4FBF8F64FEA1E4308FB6A
:100E9000164443EA044307FB06F0984208D91CEBCA
:100EA000030306F1FF3402D2984200F2CD802646B9
:100EB0001C1A1FFA8EF3B4FBF8F008FB104443EA47
:100EC000044300FB07F79F4208D91CEB030300F122
:100ED000FF3402D29F4200F2B0802046DB1B40EA82
:100EE0000640A5E7C1F120068B4022FA06F71F4312
:100EF00020FA06FC04FA01F343EA0C03F44000FA7A
:100F000001F8380C4FEA1349B4FBF0FE1FFA87FCD6
:100F100000FB1E4449EA04440EFB0CF9A14502FA09
:100F200001F20AD93C190EF1FF3A80F08480A14504
:100F300040F28180AEF1020E3C44A4EB09041FFA9A
:100F400083F9B4FBF0F300FB134449EA044403FBC8
:100F50000CFCA44507D93C1903F1FF3067D2A44526
:100F600065D9023B3C4443EA0E40A0FB0293A4EB4C
:100F70000C049C42CE469C4651D34ED055B1B8EBA2
:100F80000E0364EB0C0404FA06F6CB401E43CC407F
:100F9000C5E90064002150E7C2F1200320FA03F103
:100FA0000CFA02FC24FA03F394400C434FEA1C4869
:100FB00000FA02FE1FFA8CF7B3FBF8F008FB1031C1
:100FC000230C43EA014300FB07F1994208D91CEBCB
:100FD000030300F1FF362CD299422AD90238634428
:100FE0005B1AA4B2B3FBF8F108FB113344EA0344E3
:100FF00001FB07F3A34208D91CEB040401F1FF36FF
:1010000013D2A34211D902396444E41A41EA0041DF
:1010100039E70446F0E6084606E7C845AED2B9EB24
:10102000020E63EB070C0138A8E73146EDE70346F3
:1010300099E73046D4E7D6467FE7634402384DE768
:101040000646234608460FE7023E634430E700BFEA
:10105000704700BF80B584B000AF03460A46FB71FD
:101060001346BB71FB7903F07F03DBB23B73BB79A3
:101070007B730F4B1B680F4A11880022184604F03F
:101080004DF807F10C014FF0FF3302220A4806F039
:1010900010FC0346FB73064B1B68064A11880122AD
:1010A000184604F03BF8FB7B18461037BD4680BD60
:1010B00010000020140000201804002080B584B027
:1010C00000AF03463960FB711346BB80FB7963F0C8
:1010D0007F03DBB2BB731A4B1B681A4A11880022CC
:1010E000184604F01BF807F10E014FF0FF33012200
:1010F000154806F0DEFB0346FB73FB7B002B09D093
:101100000F4B1B680F4A11880122184604F006F89D
:10111000FB7B11E0BA884FF0FF3339680A4806F0CC
:101120003DFD0346FB73064B1B68064A11880122EE
:10113000184603F0F3FFFB7B18461037BD4680BD11
:1011400010000020140000201804002080B582B098
:1011500000AF0023FB700F214E20FFF77BFF0346FB
:10116000002B04D02D480FF01DF9012351E032204F
:1011700003F00EF9FB1C012219467520FFF79EFFB4
:101180000346002B04D026480FF00CF9012340E061
:10119000FB78472B06D0FB78194622480FF09AF8C7
:1011A000012336E005215020FFF754FF0346002BB2
:1011B00001D001232DE007215420FFF74BFF034608
:1011C000002B01D0012324E0322003F0E1F8BB1C06
:1011D000012219465320FFF771FF0346002B04D16B
:1011E000BB78194610480FF075F8104B00221A60B2
:1011F00000237B6009E00E4A7B689B0013444FF09C
:1012000000021A607B6801337B607B68022BF2DD91
:10121000002318460837BD4680BD00BF2054010892
:101220003C54010858540108805401086003002010
:101230005403002080B586B000AF786007F10C033E
:10124000062219461F20FFF739FF0346FB74FB7C7B
:10125000002B01D0FB7C20E000237B6119E07B693F
:101260005B0018333B4413F80C3C1B0219B27B693A
:101270005B00013318333B4413F80C3C1AB27B6912
:101280005B00786803440A4312B21A807B69013319
:101290007B617B69022BE2DD002318461837BD46CF
:1012A00080BD80B586B000AF786007F10C030622E0
:1012B00019462520FFF702FF0346FB74FB7C002B39
:1012C00001D0FB7C20E000237B6119E07B695B009F
:1012D00018333B4413F80C3C1B0219B27B695B00CA
:1012E000013318333B4413F80C3C1AB27B695B00A2
:1012F000786803440A4312B21A807B6901337B6128
:101300007B69022BE2DD002318461837BD4680BDFD
:1013100080B582B000AF344B93ED007A324BD3ED01
:10132000007A27EE277A304BD3ED016A2E4BD3EDAE
:10133000017A66EEA77A37EE277A2B4BD3ED026A55
:10134000294BD3ED027A66EEA77A37EE277A264B41
:10135000D3ED036A244BD3ED037A66EEA77A77EEDA
:10136000277AB0EE670A13F045F887ED010AD7ED4A
:10137000017AF5EEC07AF1EE10FA00DC2FE0F7EE1C
:10138000006A97ED017AC6EE877AC7ED017A164BAF
:1013900093ED007AD7ED017A67EE277A124BC3ED11
:1013A000007A114B93ED017AD7ED017A67EE277A37
:1013B0000D4BC3ED017A0C4B93ED027AD7ED017A18
:1013C00067EE277A084BC3ED027A074B93ED037A59
:1013D000D7ED017A67EE277A034BC3ED037A00BF9E
:1013E0000837BD4680BD00BF0000002080B586B034
:1013F00000AF584B93ED007A564BD3ED017A27EEB0
:10140000277A544BD3ED026A524BD3ED037A66EE42
:10141000A77A77EE277A77EEA77AC7ED057A4D4B54
:1014200093ED017A4B4BD3ED017A27EE277A494BA6
:10143000D3ED026A474BD3ED027A66EEA77A77EED8
:10144000277A77EEA77AB7EE007A77EE677AC7ED5C
:10145000047AD7ED040A97ED050A12F0C9FFF0EE01
:10146000407A3D4BC3ED007A3A4B93ED007A394B0D
:10147000D3ED027A27EE277A364BD3ED036A354B4C
:10148000D3ED017A66EEA77A77EE677A77EEA77AE0
:10149000C7ED037AD7ED037AF0EEE77AB7EE007A7C
:1014A000F4EEC77AF1EE10FA0BDBD7ED030A9FEDED
:1014B0002B0A0FF08DF9F0EE407A274BC3ED017A3D
:1014C00008E097ED030A12F067FFF0EE407A224B36
:1014D000C3ED017A1F4B93ED007A1E4BD3ED037AD7
:1014E00027EE277A1B4BD3ED016A1A4BD3ED027A14
:1014F00066EEA77A77EE277A77EEA77AC7ED027ABB
:10150000144B93ED027A134BD3ED027A27EE277A30
:10151000104BD3ED036A0F4BD3ED037A66EEA77A37
:1015200077EE277A77EEA77AB7EE007A77EE677ACA
:10153000C7ED017AD7ED010A97ED020A12F058FFC4
:10154000F0EE407A044BC3ED027A00BF1837BD4677
:1015500080BD00BF0000002064030020DB0FC93FF6
:1015600080B59EB000AF87ED050AC7ED040A87ED90
:10157000031AC7ED021A87ED012AC7ED002A02F00F
:10158000FBFE7867034B1B68002B05D1014A7B6F7C
:101590001360D3E274030020E84B1B687A6FD31A00
:1015A00007EE903AB8EE677ADFEDE56AC7EE267A85
:1015B000E44BC3ED007AE14A7B6F1360D7ED057A07
:1015C000F5EE407AF1EE10FA0ED1D7ED047AF5EE91
:1015D000407AF1EE10FA07D1D7ED037AF5EE407AB2
:1015E000F1EE10FA00F0A982D74BD3ED017AB1EEFB
:1015F000677AD7ED027A27EE277AD34BD3ED026ACA
:10160000D7ED017A66EEA77A37EE677ACE4BD3ED47
:10161000036AD7ED007A66EEA77A77EE677AB6EEC0
:10162000007A67EE877AC7ED1C7AC74B93ED007A94
:10163000D7ED027A27EE277AC34BD3ED026AD7EDB6
:10164000007A66EEA77A37EE277ABF4BD3ED036AAE
:10165000D7ED017A66EEA77A77EE677AB6EE007A72
:1016600067EE877AC7ED1B7AB74B93ED007AD7ED1B
:10167000017A27EE277AB44BD3ED016AD7ED007AD1
:1016800066EEA77A37EE677AAF4BD3ED036AD7EDF4
:10169000027A66EEA77A77EE277AB6EE007A67EEE0
:1016A000877AC7ED1A7AA84B93ED007AD7ED007AC6
:1016B00027EE277AA44BD3ED016AD7ED017A66EEC7
:1016C000A77A37EE277AA04BD3ED026AD7ED027ADC
:1016D00066EEA77A77EE677AB6EE007A67EE877ADB
:1016E000C7ED197A984BD3ED007A77EEA77AC7ED5C
:1016F000187A954BD3ED017A77EEA77AC7ED177A72
:10170000914BD3ED027A77EEA77AC7ED167A8E4B1E
:10171000D3ED037A77EEA77AC7ED157A8A4BD3ED2E
:10172000007AB1EE007A67EE877AC7ED147A864BBD
:10173000D3ED017AB1EE007A67EE877AC7ED137ABE
:10174000814BD3ED027AB1EE007A67EE877AC7ED6E
:10175000127A7D4BD3ED017AB2EE007A67EE877A8A
:10176000C7ED117A784BD3ED027AB2EE007A67EECC
:10177000877AC7ED107A744B93ED007A724BD3EDF4
:10178000007A67EE277AC7ED0F7A6F4B93ED017AF7
:101790006D4BD3ED017A67EE277AC7ED0E7A6A4B6F
:1017A00093ED027A684BD3ED027A67EE277AC7EDA4
:1017B0000D7A654B93ED037A634BD3ED037A67EEB5
:1017C000277AC7ED0C7AD7ED057A27EEA77AD7ED01
:1017D000047A67EEA77A37EE277AD7ED037A67EEB9
:1017E000A77A77EE277AB0EE670A12F003FEB0EE22
:1017F000407AF7EE006AC6EE877AC7ED0B7A97ED6E
:10180000057AD7ED0B7A67EE277AC7ED057A97ED63
:10181000047AD7ED0B7A67EE277AC7ED047A97ED55
:10182000037AD7ED0B7A67EE277AC7ED037A97ED47
:10183000147AD7ED0D7A27EE277AD7ED166AD7ED11
:10184000057A66EEA77A37EE277AD7ED146AD7EDD8
:101850000E7A66EEA77A37EE277AD7ED176AD7EDBC
:10186000047A66EEA77A77EE677AC7ED0A7A97ED83
:10187000137AD7ED0C7A27EE277AD7ED156AD7EDD4
:10188000057A66EEA77A37EE677AD7ED0F7AF1EE32
:10189000006A67EEA66A2C4BD3ED017A66EEA77A52
:1018A00037EE277AD7ED186AD7ED047A66EEA77A75
:1018B00037EE677AD7ED137A37EE677AD7ED116A8C
:1018C000D7ED0E7A66EEA77A37EE277AD7ED116A52
:1018D000D7ED0D7A66EEA77A37EE277AD7ED136A41
:1018E000D7ED037A66EEA77A77EE277AC7ED097A05
:1018F000D7ED0F7AB1EE007A27EE877A124BD3ED4F
:10190000027A27EE277AD7ED186AD7ED057A66EEC8
:10191000A77A37EE277AD7ED126AD7ED0C7A66EE02
:10192000A77A37EE277AD7ED156AD7ED047A66EEF7
:10193000A77A37EE677AD7ED127A07E074030020B2
:1019400000007A44700300200000002037EE677A20
:10195000D7ED106AD7ED0E7A66EEA77A37EE277AC2
:10196000D7ED106AD7ED0D7A66EEA77A37EE277AB3
:10197000D7ED126AD7ED037A66EEA77A77EE277A6B
:10198000C7ED087AD7ED0E7AB1EE007A27EE877AA6
:101990006C4BD3ED037A27EE277AD7ED176AD7ED94
:1019A000057A66EEA77A37EE677AD7ED0D7AF1EE13
:1019B000006A67EEA66A634BD3ED037A66EEA77AF8
:1019C00037EE277AD7ED166AD7ED047A66EEA77A56
:1019D00077EE677AC7ED077AD7ED0A7A27EEA77A0E
:1019E000D7ED097A67EEA77A37EE277AD7ED087A2E
:1019F00067EEA77A37EE277AD7ED077A67EEA77AF0
:101A000077EE277AB0EE670A12F0F4FCB0EE407A77
:101A1000F7EE006AC6EE877AC7ED0B7A97ED0A7A81
:101A2000D7ED0B7A67EE277AC7ED0A7A97ED097A38
:101A3000D7ED0B7A67EE277AC7ED097A97ED087A2A
:101A4000D7ED0B7A67EE277AC7ED087A97ED077A1C
:101A5000D7ED0B7A67EE277AC7ED077AD7ED0A7ACA
:101A60009FED397A67EE877A97ED1C7A77EE677A81
:101A7000C7ED1C7AD7ED097A9FED337A67EE877A46
:101A800097ED1B7A77EE677AC7ED1B7AD7ED087A68
:101A90009FED2D7A67EE877A97ED1A7A77EE677A5F
:101AA000C7ED1A7AD7ED077A9FED277A67EE877A26
:101AB00097ED197A77EE677AC7ED197A214B93ED96
:101AC000007A224BD3ED006AD7ED1C7A66EEA77A36
:101AD00077EE277A1B4BC3ED007A1A4B93ED017A10
:101AE0001A4BD3ED006AD7ED1B7A66EEA77A77EE34
:101AF000277A144BC3ED017A124B93ED027A134B04
:101B0000D3ED006AD7ED1A7A66EEA77A77EE277AD8
:101B10000C4BC3ED027A0B4B93ED037A0B4BD3EDD9
:101B2000006AD7ED197A66EEA77A77EE277A054B29
:101B3000C3ED037AFFF7ECFB00E000BF7837BD464A
:101B400080BD00BF00000020CDCCCC3D7003002044
:101B500080B588B000AF786007F10C031846FFF736
:101B600069FB0346FB76FB7E002B01D0FB7E20E069
:101B70004FF068537B610023FB6116E0FB695B005B
:101B800020333B4433F9143C07EE903AB8EEE77A41
:101B9000FB699B007A681344D7ED057A67EE277AD4
:101BA000C3ED007AFB690133FB61FB69022BE5DDC4
:101BB000002318462037BD4680BD000080B588B0A0
:101BC00000AF786007F108031846FFF76AFB034689
:101BD000FB75FB7D002B01D0FB7D37E01D4B3B618E
:101BE0000023FB612EE0FB695B0020333B4433F9AB
:101BF000183C07EE903AF8EEE77A97ED047A67EE34
:101C0000277AC7ED067A144B1B68002B0BD0134ABA
:101C1000FB699B001344D3ED007A97ED067A77EECB
:101C2000677AC7ED067AFB699B007A681344D7EDA3
:101C3000067A9FED0B7A67EE877AC3ED007AFB692F
:101C40000133FB61FB69022BCDDD002318462037F1
:101C5000BD4680BDFFFF793D600300205403002096
:101C600035FA8E3C80B586B000AF07F10C031846FC
:101C7000FFF76EFF0346002B01D0012325E03B4612
:101C80001846FFF79BFF0346002B01D001231CE001
:101C9000D7ED037A97ED047AD7ED056A97ED006AE0
:101CA000D7ED015A97ED025AF0EE452AB0EE652ABB
:101CB000F0EE461AB0EE661AF0EE470AB0EE670A8A
:101CC000FFF74EFCFFF792FB002318461837BD467E
:101CD00080BD000080B485B000AF78600023FB6059
:101CE0000CE0FB689B007A6813440949FA6892008B
:101CF0000A4412681A60FB680133FB60FB68022B20
:101D0000EFDD00BF00BF1437BD465DF8047B7047B0
:101D10006403002080B485B000AF78600023FB60CE
:101D200012E00E4AFB689B001344D3ED007AFB6877
:101D30009B007A6813449FED0A7A67EE877AC3EDB9
:101D4000007AFB680133FB60FB68022BE9DD00BF12
:101D500000BF1437BD465DF8047B70476403002064
:101D6000E12E654280B400AF114B4FF07E521A60F5
:101D70000F4B4FF000025A600D4B4FF000029A607B
:101D80000B4B4FF00002DA600A4B4FF000021A6072
:101D9000084B4FF000025A60064B4FF000029A6069
:101DA000054B00221A6000BFBD465DF8047B7047FA
:101DB0000000002064030020740300202DE9B043DC
:101DC00090B004AF78604FF4FA73FB6107F1100331
:101DD00000221A605A609A600023FB6209E0494AB7
:101DE000FB6A9B0013444FF000021A60FB6A013348
:101DF000FB62FB6A022BF2DD434B00221A600023D8
:101E0000BB6226E007F108031846FFF74AFA0023F1
:101E10007B6215E07B6A9B0030333B4453F8202CF7
:101E20007B6A5B0030333B4433F9283C1A447B6ABD
:101E30009B0030333B4443F8202C7B6A01337B62A8
:101E40007B6A022BE6DD022002F0A2FABB6A0133B4
:101E5000BB62BA6AFB699A42D4DB00233B6227E08B
:101E60003B6A9B0030333B4453F8203C07EE903AEA
:101E7000F8EEE76AFB6907EE903AF8EEE77A86EE4D
:101E8000A77A3B6A9B007A681344DFED206AC7EEAD
:101E9000267AC3ED007A3B6A9B007A6813441A687D
:101EA00018493B6A9B000B441A603B6A01333B6252
:101EB0003B6A022BD4DD144B01221A60114B1B68C4
:101EC0001846FEF779FB804689460E4B5B6818463C
:101ED000FEF772FB04460D460A4B9B681846FEF758
:101EE0006BFB02460B46CDE90223CDE90045424695
:101EF0004B4607480EF0EEF900BF3037BD46BDE84F
:101F0000B08300BF54030020600300206F128341A0
:101F10009454010880B584B000AFF860B9607A606D
:101F20007B689BB21946B8680CF01CFD7B681846AC
:101F30001037BD4680BD000090B482B000AF0446AB
:101F4000084611461A462346FB800346BB800B46D3
:101F50007B8013463B800A4B1B68FA885A63084B08
:101F60001B68BA889A63074B1B687A885A63064BCA
:101F70001B683A885A6300BF0837BD4690BC70475B
:101F80007C040020C80400201405002080B500AFA8
:101F90004FF47A734FF47A724FF47A714FF47A7087
:101FA000FFF7CAFF4FF4FA6002F0F2F900BF80BDFC
:101FB00080B582B000AF2E4B1B78DBB2002B0ED168
:101FC0002B4B01221A7002F0D7F90346294A1360FD
:101FD000294B4FF496621A8028480EF0E3F902F07C
:101FE000CBF90246234B1B68D31A7B607B6841F216
:101FF0008732934225D8204B1B88A3F57A7307EECE
:10200000903AB8EEE77A7B6807EE903AF8EE676AA6
:102010009FED1B6AC6EE867AF7EE006A76EEE77AE7
:1020200067EE277AFCEEE77A17EE903A9BB203F55B
:102030007A737B807B887A8879887888FFF77CFF41
:1020400012E04FF47A734FF47A724FF47A714FF4CE
:102050007A70FFF771FF064B00221A70094B0022BD
:102060001A7009480EF09EF900BF0837BD4680BDC2
:1020700080030020680700206C070020DC54010862
:1020800000409C4578030020F054010880B582B0E0
:1020900000AF2D4B1B78DAB22C4B1B78DBB29A4287
:1020A0004DD102F069F97860294B1B687A68D31A20
:1020B0004F2B45D9264A7B681360264B1B78002B93
:1020C00010D0254B1B8802339AB2234B1A80224B27
:1020D0001B881A46214B1B689A4225DB1D4B0022A8
:1020E0001A7021E01C4B1B88023B9AB21A4B1A80D3
:1020F000194B1B88B3F57F7F16D8164B01221A7037
:10210000124B00221A70104B00221A704FF47A738F
:102110004FF47A724FF47A714FF47A70FFF70CFF34
:102120000F480EF03FF90BE00B4B18880A4B19884B
:10213000094B1A88084B1B88FFF7FEFE00E000BF22
:102140000837BD4680BD00BF79030020780300201A
:102150007007002060000020620000204000002086
:102160000455010880B52DED028B9CB002AF07F13C
:102170003C0300221A605A609A60DA60814B1B7837
:10218000DAB2814B1B78DBB29A4240F0F68202F061
:10219000F3F8F8657D4B1B68FA6D9A4240F2E282D3
:1021A0007A4B1A684EF660231344FA6D9A4280F017
:1021B000D982774BBB65774BD3ED007AB1EE677A66
:1021C000754BD3ED006A754BD3ED007A76EEE77A66
:1021D00027EE277A724BD3ED006A724BD3ED007A6B
:1021E00066EEA77A77EE677AC7ED097A6E4BD3ED84
:1021F000007AB1EE677A684BD3ED016A674BD3ED95
:10220000017A76EEE77A27EE277A654BD3ED016AFD
:10221000664BD3ED007A66EEA77A77EE677AC7ED64
:102220000A7A634BD3ED007AB1EE677A5A4BD3ED5D
:10223000026A5A4BD3ED027A76EEE77A27EE277AD6
:10224000574BD3ED026A5B4BD3ED007A66EEA77A6B
:1022500077EE677AC7ED0B7A574BD3ED007AB1EE84
:10226000677A564BD3ED027A27EE277A544BD3ED9B
:10227000026A544BD3ED007A66EEA77A77EE677A5E
:10228000C7ED0E7AD7ED096A97ED0B7AD7ED167A7E
:1022900077EE277AF0EE670AB0EE660A12F0A8F839
:1022A00087ED150AD7ED0A6A97ED0B7AD7ED167A06
:1022B00077EE277AF0EE670AB0EE660A12F098F829
:1022C00087ED140A404BD3ED007AB1EE677A3B4BB1
:1022D000D3ED006AD7ED147A76EEE77A27EE277A07
:1022E000374BD3ED006A394BD3ED007A66EEA77A0F
:1022F00077EE677AC7ED0C7A354BD3ED007AB1EE05
:10230000677A2E4BD3ED016AD7ED157A76EEE77A30
:1023100027EE277A2A4BD3ED016A2E4BD3ED007AB4
:1023200066EEA77A77EE677AC7ED0D7A97ED140A15
:1023300012F07EF8F0EE407AF0EEE77A9FED267A22
:10234000F4EEC77AF1EE10FA0ED497ED150A12F0FA
:102350006FF8F0EE407AF0EEE77A9FED1F7AF4EE38
:10236000C77AF1EE10FA3BD51C480EF01BF840F28C
:102370004C4340F24C4240F24C4140F24C40FFF79B
:10238000DBFDFBE17903002078030020140400202A
:1023900014AEE73F18000020C8030020E00300202F
:1023A000EC0300201C00002020000020240000205E
:1023B000280000202C000020F803002098030020B3
:1023C000B0030020FC030020300000203400002077
:1023D000380000203C000020ACC527371C55010800
:1023E00097ED0B7AD7ED167A37EE277AAB4BD3ED14
:1023F000007A27EE278A97ED140A12F019F8F0EE0A
:10240000408A97ED150A12F013F8F0EE407A28EEA4
:10241000A77AC8EE077AC7ED057A97ED0C7AA04B3C
:10242000D3ED007A27EE277A9E4BD3ED006A9E4BC0
:10243000D3ED007A76EEE76A9C4BD3ED017A66EE37
:10244000A76A9A4BD3ED027A66EEA77A77EE677A9F
:10245000C7ED067A97ED0D7A924BD3ED007A27EE11
:10246000277A8F4BD3ED006A8F4BD3ED007A76EE4F
:10247000E76A8E4BD3ED007A66EEA76A8B4BD3EDFD
:10248000027A66EEA77A77EE677AC7ED077A97ED5C
:102490000E7A854BD3ED007A27EE277A804BD3ED69
:1024A000006A804BD3ED007A76EEE76A7F4BD3ED7E
:1024B000007A66EEA76A7D4BD3ED017A66EEA77AC5
:1024C00077EE677AC7ED087A97ED057AD7ED076A58
:1024D000774BD3ED007A66EEA77A37EE677A754BC5
:1024E000D3ED007A27EE277AD7ED087A77EE677A70
:1024F000C7ED017A97ED057AD7ED066A6C4BD3EDFF
:10250000007A66EEA77A37EE677A6A4BD3ED007AE7
:1025100027EE277AD7ED087A77EE277AC7ED027A89
:1025200097ED057AD7ED076A614BD3ED007A66EE39
:10253000A77A37EE277A5F4BD3ED007A27EE277A1A
:10254000D7ED087A77EE677AC7ED037A97ED057ACB
:10255000D7ED066A564BD3ED007A66EEA77A37EED2
:10256000277A544BD3ED007A27EE277AD7ED087AF5
:1025700077EE277AC7ED047A00237B6628E07B6E2E
:102580009B0068333B44643BD3ED007AF5EEC07AA0
:10259000F1EE10FA19D57B6E9B0068333B44643B27
:1025A0001B681846FEF708F802460B46796E42484B
:1025B0000DF090FE40F24C4340F24C4240F24C4150
:1025C00040F24C40FFF7B8FCD8E07B6E01337B66ED
:1025D0007B6E032BD3DDD7ED017AB0EE670A11F0E5
:1025E00009FF10EE103A1846FDF7E6FF4FF0000223
:1025F000324BFEF739F802460B4610461946FEF7F5
:102600002BFB0346FB63D7ED027AB0EE670A11F0AD
:10261000F1FE10EE103A1846FDF7CEFF4FF0000223
:10262000264BFEF721F802460B4610461946FEF7E8
:1026300013FB03463B64D7ED037AB0EE670A11F053
:10264000D9FE10EE103A1846FDF7B6FF4FF0000223
:102650001A4BFEF709F802460B4610461946FEF7DC
:10266000FBFA03467B64D7ED047AB0EE670A11F0FB
:10267000C1FE10EE103A1846FDF79EFF4FF0000223
:102680000E4BFDF7F1FF02460B4610461946FEF7CA
:10269000E3FA0346BB6400233B6645E044000020A8
:1026A000480000204C00002050000020B003002013
:1026B00054000020580000204C5501080000E03F65
:1026C0003B6E9B0068333B442C3B93ED007A2E4BD2
:1026D000D3ED007A67EE277A9FED2C7A77EE877A32
:1026E000C7ED137ADFED297AF0EE670A97ED130A4A
:1026F00011F0E9FE87ED130ADFED257AF0EE670AA7
:1027000097ED130A11F0FCFE87ED130AD7ED137A4B
:10271000FCEEE77A17EE903A99B21E4A3B6E22F829
:1027200013103B6E01333B663B6E032BC8DD194B28
:102730001B881946174B5B881A46164B9B88184610
:10274000144BDB880093034613480DF0C3FD114B77
:10275000D888104B99880F4B1A880E4B5B88FFF76F
:10276000EBFB0BE040F24C4340F24C4240F24C4158
:1027700040F24C40FFF7E0FB00E000BF6837BD4689
:10278000BDEC028B80BD00BF5C00002000808E4449
:1027900000409244000400207455010880B500AF49
:1027A000384B1B78DAB2384B1B78DBB29A423ED0FA
:1027B000344B1B78DBB2013B032B2DD801A252F81E
:1027C00023F000BFF9270008D5270008F1270008EB
:1027D0000128000840F2244340F2244240F2244100
:1027E00040F22440FFF7A8FB28480DF0DBFD14E081
:1027F000274B00221A7010E026480DF0D3FD0CE0A4
:1028000001F0BAFD024643F698231344224A1360AE
:1028100022480DF0C7FD00E000BF1A4B1B78DAB26A
:10282000194B1A7001F0A8FD03461D4A1360164BA0
:102830001B78DBB2042B21D801A252F823F000BF91
:102840007D28000855280008612800085B2800083A
:1028500077280008FFF71AFC11E0FFF7A9FB0EE04C
:102860004FF47A734FF47A724FF47A714FF47A70AE
:10287000FFF762FB03E0FFF775FC00E000BF00BF5D
:1028800080BD00BF79030020780300209055010827
:1028900080030020AC55010814040020C055010835
:1028A0007C0300202DE9B04386B004AF01F0B6F8F8
:1028B00001F011FD00F0CCF800F04EFB00F016FB2B
:1028C0000BF084FF00F070F900F0F0F900F066FA08
:1028D00000F02CF900F0DAFA00214D4806F088F8F3
:1028E00004214B4806F084F800214A4806F080F89D
:1028F0000021494806F07CF8FFF748FBFEF726FC6C
:102900000346002B07D04FF47A7001F041FD434895
:102910000DF048FD23E04248FFF750FA404B1B689A
:102920001846FDF749FE804689463D4B5B681846D0
:10293000FDF742FE04460D46394B9B681846FDF7ED
:102940003BFE02460B46CDE90223CDE90045424657
:102950004B4634480DF0BEFC33480DF023FD3348A0
:102960000DF020FD4FF4967001F012FD0122304968
:10297000304807F09CF901F0FFFC03460A3B7B60FE
:102980002D4B04221A700A2001F002FDFFF706FF0A
:1029900001F0F2FC3860FFF765F90346002B31D1F6
:1029A0000322264926480DF0FEFE2548FFF792F93E
:1029B0003A68244BA3FB02135B09642101FB03F378
:1029C000D31A002B21D11E4B1B681846FDF7F4FDCE
:1029D000804689461A4B5B681846FDF7EDFD0446B4
:1029E0000D46174B9B681846FDF7E6FD02460B4661
:1029F000CDE90223CDE9004542464B4612480DF091
:102A000069FC02E011480DF0CDFC3B687B60BAE741
:102A10007C040020C804002014050020D0550108C3
:102A200008040020E455010828560108345601081E
:102A300081030020E006002079030020BC03002071
:102A4000980300201F85EB51485601086456010881
:102A500080B594B000AF07F1200330220021184662
:102A60000DF000FE07F10C0300221A605A609A6014
:102A7000DA601A612B4B1B6C2A4A43F080531364B3
:102A8000284B1B6C03F08053BB60BB68264B1B6854
:102A9000254A43F440431360234B1B6803F440432F
:102AA0007B607B6801233B624FF480337B620223AF
:102AB000BB634FF48003FB6308233B644FF4D8737C
:102AC0007B640223BB640923FB6407F120031846DF
:102AD00003F030FE0346002B01D000F0CBFF03F0E3
:102AE000D9FD0346002B01D000F0C4FF0F23FB608B
:102AF00002233B6100237B614FF4A053BB614FF481
:102B00008053FB6107F10C030721184604F0B6F867
:102B10000346002B01D000F0ADFF00BF5037BD468B
:102B200080BD00BF003802400070004080B500AF9B
:102B30001B4B1C4A1A601A4B4FF482725A60184B96
:102B400000229A60164B4FF4E062DA60144B0022C8
:102B50001A61134B00225A61114B4FF400729A61B3
:102B60000F4B2022DA610E4B00221A620C4B00221E
:102B70005A620B4B00229A62094B0722DA62084B19
:102B800000221A63064B08225A63054804F0E6FD4A
:102B90000346002B01D000F06DFF00BF80BD00BFD9
:102BA000180400200030014080B58EB000AF07F15E
:102BB000280300221A605A609A60DA6007F11C0349
:102BC00000221A605A609A603B4600221A605A60DE
:102BD0009A60DA601A615A619A61334B4FF0804211
:102BE0001A60314B6B225A602F4B00229A602E4B99
:102BF00040F62202DA602C4B00221A612A4B002296
:102C00009A61294805F03CFE0346002B01D000F0F4
:102C100031FF4FF48053BB6207F128031946224865
:102C200006F0FCF90346002B01D000F023FF1E48FC
:102C300005F07DFE0346002B01D000F01BFF0023B2
:102C4000FB6100237B6207F11C031946164806F05E
:102C5000ABFE0346002B01D000F00CFF60233B606D
:102C60004FF4FA637B600023BB6000233B613B466B
:102C7000002219460C4806F0BDF80346002B01D08F
:102C800000F0F8FE3B4604221946074806F0B2F869
:102C90000346002B01D000F0EDFE034801F098F848
:102CA00000BF3837BD4680BD7C04002080B58EB0A3
:102CB00000AF07F1280300221A605A609A60DA60B8
:102CC00007F11C0300221A605A609A603B460022FA
:102CD0001A605A609A60DA601A615A619A612D4BE3
:102CE0002D4A1A602B4B6B225A602A4B00229A60A5
:102CF000284B40F62202DA60264B00221A61254B4F
:102D000000229A61234805F0BBFD0346002B01D049
:102D100000F0B0FE4FF48053BB6207F12803194660
:102D20001C4806F07BF90346002B01D000F0A2FE00
:102D3000184805F0FCFD0346002B01D000F09AFE78
:102D40000023FB6100237B6207F11C031946114835
:102D500006F02AFE0346002B01D000F08BFE602314
:102D60003B604FF4FA637B600023BB6000233B6150
:102D70003B4600221946074806F03CF80346002B64
:102D800001D000F077FE034801F022F800BF383789
:102D9000BD4680BDC80400200004004080B58EB050
:102DA00000AF07F1280300221A605A609A60DA60C7
:102DB00007F11C0300221A605A609A603B46002209
:102DC0001A605A609A60DA601A615A619A612D4BF2
:102DD0002D4A1A602B4B6B225A602A4B00229A60B4
:102DE000284B40F62202DA60264B00221A61254B5E
:102DF00000229A61234805F043FD0346002B01D0D1
:102E000000F038FE4FF48053BB6207F128031946E7
:102E10001C4806F003F90346002B01D000F02AFEFF
:102E2000184805F084FD0346002B01D000F022FE77
:102E30000023FB6100237B6207F11C031946114844
:102E400006F0B2FD0346002B01D000F013FE602314
:102E50003B604FF47A737B600023BB6000233B61CF
:102E60003B4600221946074805F0C4FF0346002BE5
:102E700001D000F0FFFD034800F0AAFF00BF383783
:102E8000BD4680BD140500200008004080B500AF9D
:102E9000144B154A1A60134B4FF416525A60114BDB
:102EA00000229A600F4B0022DA600E4B00221A615A
:102EB0000C4B0C225A610B4B00229A61094B0022E9
:102EC000DA61084B00221A62064B00225A6205485A
:102ED00006F016FE0346002B01D000F0CBFD00BF2C
:102EE00080BD00BFE00600200048004080B582B0F1
:102EF00000AF184B1B6B174A43F400131363154BB9
:102F00001B6B03F400137B607B68002200210B2005
:102F100001F03DFB0B2001F056FB002200210F20A9
:102F200001F035FB0F2001F04EFB002200211020A4
:102F300001F02DFB102001F046FB002200211120A2
:102F400001F025FB112001F03EFB00BF0837BD4614
:102F500080BD00BF0038024080B58AB000AF07F1E5
:102F6000140300221A605A609A60DA601A612E4BCC
:102F70001B6B2D4A43F0800313632B4B1B6B03F039
:102F800080033B613B69284B1B6B274A43F00103DD
:102F90001363254B1B6B03F00103FB60FB68224BA3
:102FA0001B6B214A43F0040313631F4B1B6B03F09D
:102FB0000403BB60BB681C4B1B6B1B4A43F0020342
:102FC0001363194B1B6B03F002037B607B680022C9
:102FD0000421164802F0A2F810237B614FF48813F5
:102FE000BB610023FB6107F114031946104801F08F
:102FF000F9FE04237B610123BB610023FB610323F2
:103000003B6207F114031946084801F0EBFE002269
:1030100000210A2001F0BBFA0A2001F0D4FA00BF17
:103020002837BD4680BD00BF003802400004024082
:10303000000802402DE9B04FECB018AF07F5A873B7
:10304000A3F58673186007F5A873A3F58873196054
:103050000023C7F8F03007F1F4033C2200211846A2
:103060000DF000FB07F5A873A3F588731B683F2BD1
:1030700005D907F5A873A3F588733F221A6007F5F1
:10308000A873A3F5887207F5A873A3F5867307F1F3
:10309000F000126819680DF086FB0023C7F84C3168
:1030A00024E007F1F002D7F84C3113441B780D2BC4
:1030B0000FD007F1F002D7F84C3113441B780A2BDC
:1030C00007D007F1F002D7F84C3113441B783B2BA3
:1030D00007D107F1F002D7F84C31134400221A70DF
:1030E0000DE0D7F84C310133C7F84C31D7F84C31EB
:1030F00007F5A872A2F5887212689A42D1D807F132
:10310000F0030222A84918460DF0B4FA0346002B3A
:1031100032D107F1F000023007F1E80107F1EC02CB
:1031200007F1E40300930B46A0490DF097F903461D
:10313000032B18D19E4B9F4A07CA83E80700D7F894
:10314000EC309C4A1360D7F8E8309A4A5360D7F8BD
:10315000E430984A93604FF0FF330922964997482C
:1031600006F01CFD06E04FF0FF330A229449934815
:1031700006F014FD0023C9E307F1F0039149184656
:10318000FDF74EF80346002B0BD18F4B02221A702D
:103190004FF0FF331A228D49884806F0FFFC0023C8
:1031A000B4E307F1F0038A491846FDF739F80346FE
:1031B000002B0BD1844B03221A704FF0FF331322E4
:1031C00084497E4806F0EAFC00239FE307F1F00300
:1031D00081491846FDF724F80346002B08D14FF02B
:1031E000FF3306227D49754806F0D8FC00238DE3A5
:1031F00007F1F0037A491846FDF712F80346002B51
:103200000AD1FEF7C3FE4FF0FF33072275496B4822
:1032100006F0C4FC002379E307F1F0037249184675
:10322000FCF7FEFF0346002B08D14FF0FF330A22C4
:103230006E49624806F0B2FC002367E307F1F00331
:103240006B491846FCF7ECFF0346002B0FD1694B86
:1032500040F2C4421A605C4B01221A704FF0FF33F7
:103260000C226549554806F099FC00234EE307F10E
:10327000F0030222614918460DF0FCF90346002BC9
:1032800020D107F1F00302335A4A5D4918460DF088
:10329000E5F84D4B01221A70564B1B6807F14C00A4
:1032A000584A20210DF086F8C7F83001D7F83031A0
:1032B0009AB207F14C014FF0FF33404806F06EFC24
:1032C000002323E307F1F0034F491846FCF7A8FF5A
:1032D0000346002B0DD14D48FEF770FDFEF742FD71
:1032E0004FF0FF3314224A49344806F057FC0023BC
:1032F0000CE307F1F00347491846FCF791FF03463A
:10330000002B40F08D804448FEF704FD424B1B68C3
:103310001846FDF751F904460D463F4B5B681846C9
:10332000FDF74AF9804689463B4B9B681846FDF7F6
:1033300043F982468B461F4B1B681846FDF73CF944
:10334000C7E90E011B4B5B681846FDF735F9C7E965
:103350000C01184B9B681846FDF72EF902460B46E8
:1033600007F14C00CDE90A2397ED0C7B8DED087B2E
:1033700097ED0E7B8DED067BCDE904ABCDE902899F
:10338000CDE90045254A80210DF014F8C7F8340135
:10339000D7F834319AB207F14C014FF0FF330748A8
:1033A00006F0FCFB0023B1E27456010878560108D0
:1033B000D4030020C803002084560108E006002042
:1033C000905601089C56010879030020A456010874
:1033D000C0560108C8560108DC560108E456010829
:1033E000EC560108F0560108F8560108005701088C
:1033F0000C57010840000020145701082457010809
:10340000285701082C5701083C57010808040020E0
:10341000445701085C570108A403002068570108BD
:1034200007F1F0030322A64918460DF023F90346DD
:10343000002B53D1A34B04221A7007F1F000033084
:1034400007F1DC0107F1E00207F1D80300930B4616
:103450009D490DF003F80346032B10D19B4B9C4A6A
:1034600007CA83E80700D7F8E0309A4A1360D7F814
:10347000DC30984A5360D7F8D830964A9360954B21
:103480001B681846FDF798F804460D46914B5B689B
:103490001846FDF791F8804689468E4B9B68184682
:1034A000FDF78AF802460B4607F14C00CDE90423EC
:1034B000CDE90289CDE90045874A40210CF07AFF29
:1034C000C7F83801D7F838319AB207F14C014FF0FC
:1034D000FF33824806F062FB002317E207F1F00396
:1034E0007F491846FCF79CFE0346002B4DD1784BD4
:1034F0001B681846FDF760F804460D46744B5B6880
:103500001846FDF759F880468946714B9B68184666
:10351000FDF752F882468B466C4B1B681846FDF748
:103520004BF8C7E90E01694B5B681846FDF744F894
:10353000C7E90C01654B9B681846FDF73DF802464C
:103540000B4607F14C00CDE90A2397ED0C7B8DED7E
:10355000087B97ED0E7B8DED067BCDE904ABCDE9C5
:103560000289CDE900455F4A80210CF023FFC7F8AE
:103570003C01D7F83C319AB207F14C014FF0FF33D0
:10358000564806F00BFB0023C0E107F1F0030222CE
:10359000554918460DF06EF80346002B40F0C080E8
:1035A000524B1B681846FDF707F8C7E90E01504B50
:1035B0001B681846FDF700F8C7E90C014D4B1B6866
:1035C0001846FCF7F9FFC7E90A014B4B1B68184680
:1035D000FCF7F2FFC7E90801484B1B681846FCF7E7
:1035E000EBFFC7E90601464B1B681846FCF7E4FFF2
:1035F000C7E90401434B1B681846FCF7DDFFC7E928
:103600000201414B1B681846FCF7D6FFC7E90001D1
:103610003E4B1B681846FCF7CFFF82468B463C4B5F
:103620001B681846FCF7C8FF80468946394B1B6863
:103630001846FCF7C1FF04460D46374B1B68184679
:10364000FCF7BAFF02460B4607F14C00CDE9162302
:10365000CDE91445CDE91289CDE910AB97ED007B9A
:103660008DED0E7B97ED027B8DED0C7B97ED047B52
:103670008DED0A7B97ED067B8DED087B97ED087B42
:103680008DED067B97ED0A7B8DED047B97ED0C7B32
:103690008DED027B97ED0E7B8DED007B1F4A402167
:1036A0000CF088FEC7F84001D7F840319AB207F114
:1036B0004C014FF0FF33094806F070FA002325E172
:1036C000945701087903002078560108D40300209C
:1036D000C8030020E003002098570108E0060020FE
:1036E000B4570108BC570108E8570108180000202A
:1036F0001C000020200000202400002028000020C2
:103700002C00002030000020340000203800002071
:103710003C000020F8030020FC030020EC570108C7
:1037200007F1F00303227C4918460CF0A3FF03467F
:10373000002B2ED14FF00003C7F8D43007F1F0036F
:10374000033307F1D402754918460CF087FE03468F
:10375000012B03D1D7F8D430714A1360704B1B682A
:103760001846FCF729FF02460B4607F14C00CDE94D
:1037700000236C4A40210CF01DFEC7F84801D7F821
:1037800048319AB207F14C014FF0FF33664806F01A
:1037900005FA07F1F0030222644918460CF06AFFAB
:1037A0000346002B40F0A1800023C7F8D0304FF033
:1037B0000003C7F8CC3007F1F000023007F1CC036A
:1037C00007F1D0025A490CF049FE0346022B7AD188
:1037D000D7F8D030013B0B2B56D801A252F823F07A
:1037E000113800081B380008253800082F38000859
:1037F00039380008433800084D38000857380008A9
:10380000613800086B380008753800087F380008F8
:10381000D7F8CC30474A136036E0D7F8CC30464A68
:10382000136031E0D7F8CC30444A13602CE0D7F86D
:10383000CC30434A136027E0D7F8CC30414A1360BC
:1038400022E0D7F8CC30404A13601DE0D7F8CC30E6
:103850003E4A136018E0D7F8CC303D4A136013E0BD
:10386000D7F8CC303B4A13600EE0D7F8CC303A4A58
:10387000136009E0D7F8CC30384A136004E0D7F879
:10388000CC30374A136000BFD7F8D040D7F8CC30DF
:103890001846FCF791FE02460B4607F14C00CDE9B5
:1038A000002323462F4A40210CF084FDC7F8440131
:1038B000D7F844319AB207F14C014FF0FF331A4860
:1038C00006F06CF90FE007F5A873A3F588731B6881
:1038D0009AB207F5A873A3F586714FF0FF33096814
:1038E000114806F05BF9002310E007F5A873A3F573
:1038F00088731B689AB207F5A873A3F586714FF019
:10390000FF330968084806F049F90123184607F50E
:10391000A877BD46BDE8B08F2C5801083058010883
:103920005C00002034580108E006002048580108D7
:103930004C580108180000201C0000202000002026
:1039400024000020280000202C000020300000204F
:1039500034000020380000203C000020F803002044
:10396000FC0300205458010880B483B000AF034624
:10397000FB8000BF0C37BD465DF8047B704700003C
:1039800080B582B000AF7860174B1B785A1CD1B25B
:10399000154A11701A46154B1978154B9954134B4B
:1039A0001B783B2B07D0114B1B780A2B03D00E4BF7
:1039B0001B780E2B0ED90C4B1B781A460C4B002192
:1039C0009954094B1B7819460948FFF733FB064BFE
:1039D00000221A7001220549064806F068F900BF66
:1039E0000837BD4680BD00BF94030020810300203E
:1039F00084030020E006002080B582B000AF78602C
:103A000039603B689AB20A237968034806F0C6F821
:103A100000BF0837BD4680BDE006002080B584B0F9
:103A200000AF3B4600221A605A609A60DA6000F0EC
:103A3000E5FD01233B7000237B7000237B601F2387
:103A40003B7287237B720023BB720023FB7201232E
:103A50003B7301237B730023BB730023FB733B4643
:103A6000184600F003FE042000F0E0FD00BF103710
:103A7000BD4680BD80B400AF72B600BF00BFFDE799
:103A800080B483B000AF0F4B1B6C0E4A43F08053E1
:103A900013640C4B1B6C03F080537B607B68094BF9
:103AA0005B6C084A43F480435364064B5B6C03F43D
:103AB00080433B603B6800BF0C37BD465DF8047B2C
:103AC000704700BF0038024080B58AB000AF786010
:103AD00007F1140300221A605A609A60DA601A61D2
:103AE0007B681B681B4A93422FD11B4B5B6C1A4AA5
:103AF00043F480535364184B5B6C03F480533B6175
:103B00003B69154B1B6B144A43F001031363124BC3
:103B10001B6B03F00103FB60FB68E0237B61022366
:103B2000BB610023FB6103233B6205237B6207F13A
:103B300014031946094801F055F9002200212320F9
:103B400000F025FD232000F03EFD00BF2837BD46D4
:103B500080BD00BF0030014000380240000002403C
:103B600080B586B000AF78607B681B68B3F1804F8A
:103B70007AD18C4B1B6C8B4A43F001031364894B45
:103B80001B6C03F001037B617B69874B874A1A60DA
:103B9000854B4FF0C0625A60834B00229A60824B83
:103BA0000022DA60804B4FF480621A617E4B4FF442
:103BB00080525A617C4B4FF480429A617A4B0022CA
:103BC000DA61794B00221A62774B00225A627648FA
:103BD00000F08CFD0346002B01D0FFF74BFF7B6804
:103BE000714A5A62704A7B689363714B714A1A60DA
:103BF0006F4B4FF0C0625A606D4B00229A606C4B65
:103C00000022DA606A4B4FF480621A61684B4FF40D
:103C100080525A61664B4FF480429A61644B002295
:103C2000DA61634B00221A62614B00225A626048DB
:103C300000F05CFD0346002B01D0FFF71BFF7B6803
:103C40005B4A9A625A4A7B6893637B68584A1A6354
:103C5000574A7B689363002200211C2000F097FCE8
:103C60001C2000F0B0FC98E07B681B68524A93422D
:103C70004AD14C4B1B6C4B4A43F002031364494B33
:103C80001B6C03F002033B613B694C4B4C4A1A60CE
:103C90004A4B4FF020625A60484B00229A60474BD3
:103CA0000022DA60454B4FF480621A61434B4FF4B7
:103CB00000625A61414B4FF400529A613F4B00221F
:103CC000DA613E4B00221A623C4B00225A623B48AA
:103CD00000F00CFD0346002B01D0FFF7CBFE7B6804
:103CE000364A5A62354A7B6893637B68334A9A63E3
:103CF000324A7B689363002200211D2000F047FCBC
:103D00001D2000F060FC48E07B681B682D4A934250
:103D100043D1244B1B6C234A43F004031364214B0F
:103D20001B6C03F00403FB60FB68274B274A1A60F7
:103D3000254B4FF080625A60234B00229A60224B41
:103D40000022DA60204B4FF480621A611E4B4FF460
:103D500000625A611C4B4FF400529A611A4B0022C8
:103D6000DA61194B00221A62174B00225A62164878
:103D700000F0BCFC0346002B01D0FFF77BFE7B6804
:103D8000114A5A62104A7B689363002200211E2068
:103D900000F0FDFB1E2000F016FC00BF1837BD46EA
:103DA00080BD00BF003802406005002088600240EE
:103DB000C0050020A0600240000400402006002052
:103DC0007060024000080040800600201060024041
:103DD00080B58CB000AF786007F11C0300221A6038
:103DE0005A609A60DA601A617B681B68B3F1804F91
:103DF00039D1404B1B6B3F4A43F0010313633D4BEA
:103E00001B6B03F00103BB61BB693A4B1B6B394A67
:103E100043F002031363374B1B6B03F002037B6118
:103E20007B694FF40043FB6102233B6200237B620A
:103E30000023BB620123FB6207F11C0319462E48D5
:103E400000F0D0FF0823FB6102233B6200237B626A
:103E50000023BB620123FB6207F11C0319462748BC
:103E600000F0C0FF42E07B681B68254A93421CD1EA
:103E7000204B1B6B1F4A43F0020313631D4B1B6B4C
:103E800003F002033B613B691023FB6102233B62A9
:103E900000237B620023BB620223FB6207F11C0349
:103EA0001946164800F09EFF20E07B681B68154A03
:103EB00093421BD10F4B1B6B0E4A43F0020313635B
:103EC0000C4B1B6B03F00203FB60FB684023FB61A0
:103ED00002233B6200237B620023BB620223FB625E
:103EE00007F11C031946054800F07CFF00BF30377E
:103EF000BD4680BD00380240000002400004024080
:103F0000000400400008004080B5AAB000AF78600F
:103F100007F1940300221A605A609A60DA601A610D
:103F200007F114038022002118460CF09BFB7B68EC
:103F30001B68264A934244D14FF480737B6100236F
:103F4000BB6507F11403184603F0BEF80346002BC7
:103F500001D0FFF78FFD1E4B1B6C1D4A43F48023DD
:103F600013641B4B1B6C03F480233B613B69184BB0
:103F70001B6B174A43F002031363154B1B6B03F0D3
:103F80000203FB60FB684FF44063C7F894300223E0
:103F9000C7F898300023C7F89C300323C7F8A03037
:103FA0000723C7F8A43007F194031946094800F025
:103FB00019FF00220021272000F0E9FA272000F055
:103FC00002FB00BFA837BD4680BD00BF00480040CF
:103FD000003802400004024080B400AF00BFFDE79B
:103FE00080B400AF00BFFDE780B400AF00BFFDE7C5
:103FF00080B400AF00BFFDE780B400AF00BFFDE7B5
:1040000080B400AF00BFBD465DF8047B704780B44C
:1040100000AF00BFBD465DF8047B704780B400AFC1
:1040200000BFBD465DF8047B704780B500AF00F06F
:104030008FF900BF80BD80B500AF102001F088F877
:1040400000BF80BD80B500AF024800F08FFC00BF0C
:1040500080BD00BF8006002080B500AF024800F0A0
:1040600085FC00BF80BD00BF2006002080B500AFEA
:10407000024800F07BFC00BF80BD00BF600500204F
:1040800080B500AF024800F071FC00BF80BD00BFEA
:10409000C005002080B500AF024804F0A3FD00BFBA
:1040A00080BD00BF7C04002080B500AF024804F052
:1040B00099FD00BF80BD00BFC804002080B500AFDF
:1040C000024804F08FFD00BF80BD00BF1405002032
:1040D00080B500AF024804F0BBF800BF80BD00BF50
:1040E0001804002080B500AF024805F025FE00BF8F
:1040F00080BD00BFE006002080B500AF024801F09F
:1041000077F900BF80BD00BF5C1C002080B400AF09
:1041100001231846BD465DF8047B704780B582B028
:1041200000AF786039600CF011FB034616221A606C
:104130004FF0FF3318460837BD4680BD80B582B0CA
:1041400000AF78604FF0FF317868FFF7E7FF00BFFE
:10415000FDE780B586B000AFF860B9607A600023F3
:104160007B610AE0AFF300800146BB685A1CBA606D
:10417000CAB21A707B6901337B617A697B689A42A3
:10418000F0DB7B6818461837BD4680BD80B483B02D
:1041900000AF78604FF0FF3318460C37BD465DF82E
:1041A000047B704780B483B000AF786039603B68AF
:1041B0004FF400525A60002318460C37BD465DF894
:1041C000047B704780B483B000AF78600123184649
:1041D0000C37BD465DF8047B704780B485B000AFF6
:1041E000F860B9607A60002318461437BD465DF860
:1041F000047B704780B586B000AF7860144A154BD9
:10420000D31A7B617B693B61134B1B68002B02D186
:10421000114B124A1A60104B1A687B6813443A69B2
:104220009A4207D20CF092FA03460C221A604FF021
:10423000FF3309E0084B1B68FB60074B1A687B687B
:104240001344054A1360FB6818461837BD4680BD05
:1042500000000420000400007407002088220020D1
:1042600080B400AF064BD3F88830054A43F470039E
:10427000C2F8883000BFBD465DF8047B704700BFC0
:1042800000ED00E0DFF834D0FFF7EAFF0C480D49FD
:104290000D4A002302E0D458C4500433C4188C42A1
:1042A000F9D30A4A0A4C002301E013600432A24207
:1042B000FBD30CF051FAFEF7F5FA7047000004202A
:1042C00000000020380300203C6101083803002072
:1042D00088220020FEE780B500AF032000F04CF9F3
:1042E0000F2000F005F8FFF7CBFB0023184680BD38
:1042F00080B582B000AF7860124B1A68124B1B7801
:1043000019464FF47A73B3FBF1F3B2FBF3F318469B
:1043100000F067F90346002B01D001230EE07B6813
:104320000F2B0AD8002279684FF0FF3000F02FF9E8
:10433000064A7B681360002300E001231846083713
:10434000BD4680BD640000206C0000206800002095
:1043500080B400AF064B1B781A46064B1B6813440B
:10436000044A136000BFBD465DF8047B704700BF80
:104370006C0000207807002080B400AF034B1B685E
:104380001846BD465DF8047B704700BF78070020E3
:1043900080B584B000AF7860FFF7EEFFB8607B684F
:1043A000FB60FB68B3F1FF3F05D00A4B1B781A4650
:1043B000FB681344FB6000BFFFF7DEFF0246BB68EB
:1043C000D31AFA689A42F7D800BF00BF1037BD462B
:1043D00080BD00BF6C00002080B485B000AF786065
:1043E0007B6803F00703FB600B4BDB68BB60BA68BC
:1043F0004FF6FF031340BB60FB681A02BB681A4309
:10440000064B1343BB60044ABB68D36000BF14373C
:10441000BD465DF8047B704700ED00E00000FA0542
:1044200080B400AF044BDB681B0A03F00703184697
:10443000BD465DF8047B704700ED00E080B483B0BA
:1044400000AF0346FB7197F90730002B0BDBFB79BC
:1044500003F01F02074997F907305B09012000FAB2
:1044600002F241F8232000BF0C37BD465DF8047B03
:10447000704700BF00E100E080B483B000AF0346A6
:104480003960FB7197F90730002B0ADB3B68DAB221
:104490000C4997F907301201D2B20B4483F800237C
:1044A0000AE03B68DAB20849FB7903F00F03043BEA
:1044B0001201D2B20B441A7600BF0C37BD465DF82C
:1044C000047B704700E100E000ED00E080B489B0BB
:1044D00000AFF860B9607A60FB6803F00703FB6126
:1044E000FB69C3F10703042B28BF0423BB61FB69ED
:1044F0000433062B02D9FB69033B00E000237B61F8
:104500004FF0FF32BB6902FA03F3DA43BB681A408B
:104510007B699A404FF0FF317B6901FA03F3D9437D
:104520007B680B40134318462437BD465DF8047B77
:104530007047000080B582B000AF78607B68013BB7
:10454000B3F1807F01D301230FE00A4A7B68013B6E
:1045500053600F214FF0FF30FFF78EFF054B002215
:104560009A60044B07221A60002318460837BD469C
:1045700080BD00BF10E000E080B582B000AF786081
:104580007868FFF729FF00BF0837BD4680BD80B5BA
:1045900086B000AF0346B9607A60FB7300237B618D
:1045A000FFF73EFF78617A68B9687869FFF78EFF98
:1045B000024697F90F3011461846FFF75DFF00BF1E
:1045C0001837BD4680BD80B582B000AF0346FB7191
:1045D00097F907301846FFF731FF00BF0837BD468F
:1045E00080BD80B582B000AF78607868FFF7A2FF29
:1045F000034618460837BD4680BD000080B400AFB2
:10460000BFF35F8F00BF074B5B6A064A23F480331A
:104610005362054B00225A6000BFBD465DF8047B23
:10462000704700BF00ED00E090ED00E080B483B083
:1046300000AF78600B4A7B6843F0010353600A4B7C
:104640005B6A094A43F480335362BFF34F8F00BF64
:10465000BFF36F8F00BF00BF0C37BD465DF8047B12
:10466000704700BF90ED00E000ED00E080B483B043
:1046700000AF78607B685A781B4B9A601A4B1B69B5
:10468000194A23F001031361174A7B685B68D36002
:104690007B681B7B1A077B68DB7A1B061A437B68E7
:1046A0009B7ADB041A437B685B7B9B041A437B6821
:1046B0009B7B5B041A437B68DB7B1B041A437B6890
:1046C0005B7A1B021A437B681B7A5B0013437A6890
:1046D00012781146044A0B43136100BF0C37BD46E4
:1046E0005DF8047B704700BF90ED00E080B586B0B8
:1046F00000AF786000237B61FFF73EFE38617B6886
:10470000002B01D1012399E07B68022283F8352038
:104710007B68002283F834207B681B681A687B68FA
:104720001B6822F001021A600FE0FFF725FE024627
:104730003B69D31A052B08D97B6820225A657B6810
:10474000032283F83520032378E07B681B681B680D
:1047500003F00103002BE8D17B681B681B687B61B9
:104760007A69384B13407B617B685A687B689B6829
:104770001A437B68DB681A437B681B691A437B68B2
:104780005B691A437B689B691A437B68DB691A4340
:104790007B681B6A13437A6913437B617B685B6A9E
:1047A000042B07D17B68DA6A7B681B6B13437A6939
:1047B00013437B617B681B687A691A607B681B689E
:1047C0005B697B617B6923F007037B617B685B6AC4
:1047D0007A6913437B617B685B6A042B17D17B6822
:1047E0009B6A7A6913437B617B68DB6A002B0ED07E
:1047F000786800F07BFA0346002B08D07B684022E3
:104800005A657B68002283F83520012316E07B6817
:104810001B687A695A61786800F032FA0346FB60D7
:104820007B68DB6D3F229A40FB689A607B680022C0
:104830005A657B68012283F8352000231846183713
:10484000BD4680BD3F8010E080B584B000AF786089
:104850007B689B6DFB60FFF78FFDB8607B6893F80A
:104860003530DBB2022B08D07B6880225A657B682A
:10487000002283F83420012352E07B681B681A6809
:104880007B681B6822F016021A607B681B685A69F5
:104890007B681B6822F080025A617B681B6C002BCE
:1048A00003D17B689B6C002B07D07B681B681A6860
:1048B0007B681B6822F008021A607B681B681A6814
:1048C0007B681B6822F001021A6013E0FFF754FDB9
:1048D0000246BB68D31A052B0CD97B6820225A6587
:1048E0007B68032283F835207B68002283F834201C
:1048F000032315E07B681B681B6803F00103002B92
:10490000E4D17B68DB6D3F229A40FB689A607B684C
:10491000012283F835207B68002283F834200023AD
:1049200018461037BD4680BD80B483B000AF7860B4
:104930007B6893F83530DBB2022B04D07B68802291
:104940005A6501230CE07B68052283F835207B68DB
:104950001B681A687B681B6822F001021A6000233A
:1049600018460C37BD465DF8047B704780B586B0AD
:1049700000AF78600023BB608E4B1B688E4AA2FBA1
:1049800003239B0A7B617B689B6D3B613B691B68D2
:10499000FB607B68DB6D08229A40FB681340002BAC
:1049A0001AD07B681B681B6803F00403002B13D02C
:1049B0007B681B681A687B681B6822F004021A6017
:1049C0007B68DB6D08229A403B699A607B685B6D6F
:1049D00043F001027B685A657B68DB6D01229A40D7
:1049E000FB681340002B12D07B681B685B6903F0E7
:1049F0008003002B0BD07B68DB6D01229A403B6962
:104A00009A607B685B6D43F002027B685A657B6845
:104A1000DB6D04229A40FB681340002B12D07B68A8
:104A20001B681B6803F00203002B0BD07B68DB6D57
:104A300004229A403B699A607B685B6D43F00402F4
:104A40007B685A657B68DB6D10229A40FB681340D7
:104A5000002B43D07B681B681B6803F00803002B06
:104A60003CD07B68DB6D10229A403B699A607B6882
:104A70001B681B6803F48023002B18D07B681B681D
:104A80001B6803F40023002B08D17B681B6C002BF0
:104A900024D07B681B6C786898471FE07B689B6C10
:104AA000002B1BD07B689B6C7868984716E07B686E
:104AB0001B681B6803F48073002B07D17B681B689D
:104AC0001A687B681B6822F008021A607B681B6CFE
:104AD000002B03D07B681B6C786898477B68DB6D84
:104AE00020229A40FB681340002B00F08F807B68E7
:104AF0001B681B6803F01003002B00F087807B68A5
:104B0000DB6D20229A403B699A607B6893F83530D0
:104B1000DBB2052B36D17B681B681A687B681B6883
:104B200022F016021A607B681B685A697B681B6852
:104B300022F080025A617B681B6C002B03D17B68DA
:104B40009B6C002B07D07B681B681A687B681B680E
:104B500022F008021A607B68DB6D3F229A403B69B5
:104B60009A607B68012283F835207B68002283F8F5
:104B700034207B681B6D002B7ED07B681B6D7868B2
:104B8000984779E07B681B681B6803F48023002B3F
:104B90001DD07B681B681B6803F40023002B0DD11C
:104BA0007B685B6C002B31D07B685B6C78689847C6
:104BB0002CE000BF64000020B5814E1B7B68DB6BDE
:104BC000002B23D07B68DB6B786898471EE07B68FE
:104BD0001B681B6803F48073002B0FD17B681B6874
:104BE0001A687B681B6822F010021A607B68012239
:104BF00083F835207B68002283F834207B68DB6BE8
:104C0000002B03D07B68DB6B786898477B685B6D13
:104C1000002B32D07B685B6D03F00103002B22D0A8
:104C20007B68052283F835207B681B681A687B68DF
:104C30001B6822F001021A60BB680133BB607A690D
:104C40009A4207D37B681B681B6803F00103002BA3
:104C5000F2D100E000BF7B68012283F835207B6839
:104C6000002283F834207B68DB6C002B05D07B6846
:104C7000DB6C7868984700E000BF1837BD4680BD00
:104C800080B485B000AF78607B681B68DBB2103BF6
:104C9000134AA2FB03231B09FB60124AFB6813445F
:104CA0001B781A467B68DA65FB68032B08D97B689A
:104CB0001B681A460C4B13401A1D7B689A6506E068
:104CC0007B681B681A46084B13407A6893657B68BB
:104CD0009B6D18461437BD465DF8047B704700BFD6
:104CE000ABAAAAAAD458010800FCFFFF80B485B083
:104CF00000AF78600023FB737B689B6ABB607B68B6
:104D00009B69002B1FD1BB68032B56D801A252F818
:104D100023F000BF254D0008374D0008254D000841
:104D2000BB4D00087B68DB6A03F08073002B46D024
:104D30000123FB7343E07B68DB6AB3F1C07F40D1A2
:104D40000123FB733DE07B689B69B3F5005F21D1D4
:104D5000BB68032B37D801A252F823F06D4D000831
:104D6000734D00086D4D0008854D00080123FB734D
:104D700030E07B68DB6A03F08073002B25D00123D1
:104D8000FB7322E07B68DB6AB3F1C07F1FD1012394
:104D9000FB731CE0BB68022B03D9BB68032B03D059
:104DA00018E00123FB7315E07B68DB6A03F0807376
:104DB000002B0ED00123FB730BE000BF0AE000BF05
:104DC00008E000BF06E000BF04E000BF02E000BF53
:104DD00000E000BFFB7B18461437BD465DF8047B3E
:104DE000704700BF80B489B000AF7860396000239D
:104DF000FB6100237B6100233B610023BB61002337
:104E0000FB6169E10122FB6902FA03F37B613B6804
:104E10001B687A6913403B613A697B699A4240F0AA
:104E200058813B685B6803F00303012B05D03B68A6
:104E30005B6803F00303022B30D17B689B68BB6186
:104E4000FB695B00032202FA03F3DB43BA691340F8
:104E5000BB613B68DA68FB695B0002FA03F3BA697D
:104E60001343BB617B68BA699A607B685B68BB610E
:104E70000122FB6902FA03F3DB43BA691340BB6109
:104E80003B685B681B0903F00102FB6902FA03F34C
:104E9000BA691343BB617B68BA695A603B685B6857
:104EA00003F00303032B17D07B68DB68BB61FB694E
:104EB0005B00032202FA03F3DB43BA691340BB61D0
:104EC0003B689A68FB695B0002FA03F3BA69134313
:104ED000BB617B68BA69DA603B685B6803F0030317
:104EE000022B23D1FB69DA087B68083253F82230A1
:104EF000BB61FB6903F007039B000F2202FA03F377
:104F0000DB43BA691340BB613B681A69FB6903F074
:104F100007039B0002FA03F3BA691343BB61FB6901
:104F2000DA087B680832B96943F822107B681B688D
:104F3000BB61FB695B00032202FA03F3DB43BA693E
:104F40001340BB613B685B6803F00302FB695B00D5
:104F500002FA03F3BA691343BB617B68BA691A604A
:104F60003B685B6803F44033002B00F0B280604B79
:104F70005B6C5F4A43F4804353645D4B5B6C03F4AA
:104F80008043FB60FB685B4AFB699B08023352F875
:104F90002330BB61FB6903F003039B000F2202FA7D
:104FA00003F3DB43BA691340BB617B68524A934207
:104FB0002BD07B68514A934225D07B68504A93425C
:104FC0001FD07B684F4A934219D07B684E4A934268
:104FD00013D07B684D4A93420DD07B684C4A934274
:104FE00007D07B684B4A934201D107230EE0082388
:104FF0000CE006230AE0052308E0042306E003236F
:1050000004E0022302E0012300E00023FA6902F039
:10501000030292009340BA691343BB613549FB69AF
:105020009B080233BA6941F823203B4B9B68BB6164
:105030003B69DB43BA691340BB613B685B6803F4BF
:105040008013002B03D0BA693B691343BB61324A1A
:10505000BB699360304BDB68BB613B69DB43BA697A
:105060001340BB613B685B6803F40013002B03D063
:10507000BA693B691343BB61274ABB69D360264BBE
:105080005B68BB613B69DB43BA691340BB613B684A
:105090005B6803F40033002B03D0BA693B69134308
:1050A000BB611D4ABB6953601B4B1B68BB613B69FD
:1050B000DB43BA691340BB613B685B6803F4803330
:1050C000002B03D0BA693B691343BB61124ABB6929
:1050D0001360FB690133FB61FB690F2B7FF692AE16
:1050E00000BF00BF2437BD465DF8047B704700BF9A
:1050F0000038024000380140000002400004024035
:1051000000080240000C024000100240001402405F
:1051100000180240001C0240003C014080B483B0F3
:1051200000AF78600B467B8013467B707B78002B4A
:1051300003D07A887B689A6103E07B881A047B68D5
:105140009A6100BF0C37BD465DF8047B70470000D4
:1051500080B582B000AF0346FB80084B5A69FB88DC
:105160001340002B06D0054AFB885361FB88184684
:10517000FEF7FAFB00BF0837BD4680BD003C01408A
:1051800080B586B002AF78607B68002B01D1012327
:1051900008E17B681B68BB607B6893F89534DBB2E1
:1051A000002B06D17B68002283F89424786809F0EC
:1051B00033FD7B68032283F89524BB68B3F1A04FCD
:1051C00002D17B6800229A717B681B68184606F042
:1051D000C0F87B6818687B681A7C8DF8002004335F
:1051E0000ECB05F077FF0346002B05D07B6802222B
:1051F00083F895240123D5E07B681B6800211846BD
:1052000006F0B8F80346002B05D07B68022283F82D
:1052100095240123C6E00023FB734AE0FA7B7968FA
:105220001346DB0013449B000B44153301221A7014
:10523000FA7B79681346DB0013449B000B4414335C
:10524000FA7B1A70FA7BFB7B98B279681346DB0015
:1052500013449B000B442E3302461A80FA7B796874
:105260001346DB0013449B000B44183300221A70D2
:10527000FA7B79681346DB0013449B000B441C3314
:1052800000221A60FA7B79681346DB0013449B0006
:105290000B44203300221A60FA7B79681346DB0046
:1052A00013449B000B44243300221A60FB7B013320
:1052B000FB737B681B79FA7B9A42AFD30023FB73A5
:1052C00044E0FA7B79681346DB0013449B000B44EF
:1052D00003F2552300221A70FA7B79681346DB002B
:1052E00013449B000B4403F51573FA7B1A70FA7B89
:1052F00079681346DB0013449B000B4403F51673D7
:1053000000221A70FA7B79681346DB0013449B0075
:105310000B4403F5177300221A60FA7B7968134671
:10532000DB0013449B000B4403F5187300221A6042
:10533000FA7B79681346DB0013449B000B4403F5AA
:10534000197300221A60FB7B0133FB737B681B79A6
:10535000FA7B9A42B5D37B6818687B681A7C8DF813
:10536000002004330ECB06F051F80346002B05D085
:105370007B68022283F89524012313E07B680022D6
:105380005A747B68012283F895247B681B7B012B70
:1053900002D1786801F05AF97B681B68184607F05B
:1053A000A2F8002318461037BD4680BD80B582B0F4
:1053B00000AF78607B6893F89434012B01D102230D
:1053C00012E07B68012283F894247B681B681846EE
:1053D00005F0AEFF7B681B68184607F063F87B6832
:1053E000002283F89424002318460837BD4680BD68
:1053F00090B58DB000AF78607B681B683B623B6AFC
:10540000FB617B681B68184607F021F90346002BF7
:1054100040F0B9847B681B68184607F085F803469E
:10542000002B00F0AF84FB6903F500639B681B0A47
:10543000C3F30D027B68C3F8D4247B681B6818464D
:1054400007F072F8034603F00203022B07D17B68D2
:105450001B685A697B681B6802F002025A617B680C
:105460001B68184607F060F8034603F01003102B82
:1054700061D17B681B689A697B681B6822F0100207
:105480009A613B6A1B6ABB61BB6903F00F0213465A
:10549000DB0013449B0003F514737A681344043350
:1054A0007B61BB695B0C03F00F03022B24D1BA694B
:1054B00047F6F0731340002B35D07B69D968BB6980
:1054C0001B099BB2C3F30A039BB21A46386A06F063
:1054D00097FE7B69DA68BB691B09C3F30A031A44A8
:1054E0007B69DA607B695A69BB691B09C3F30A03EC
:1054F0001A447B695A6116E0BB695B0C03F00F0329
:10550000062B10D17B6803F29C4308221946386AA7
:1055100006F076FE7B695A69BB691B09C3F30A036F
:105520001A447B695A617B681B689A697B681B68AF
:1055300042F010029A617B681B68184606F0F4FF7F
:10554000034603F40023B3F5002F40F0A7800023A7
:105550007B627B681B68184606F0F9FFB86299E029
:10556000BB6A03F00103002B00F08E807B681B6890
:105570007A6AD2B21146184607F01DF838613B69C5
:1055800003F00103002B0CD07B6A5A01FB69134422
:1055900003F530631A4601239360796A786800F056
:1055A000CFFE3B6903F00803002B0CD07B6A5A0145
:1055B000FB69134403F530631A4608239360796A44
:1055C000786800F0A5FF3B6903F01003002B08D0BA
:1055D0007B6A5A01FB69134403F530631A461023B2
:1055E00093603B6903F00203002B30D03B6A5B6998
:1055F00003F08003802B09D1FB6903F500635B682E
:10560000FA6902F5006243F4806353607A6A1346D4
:10561000DB0013449B0003F514737A6813440433CE
:105620007B617B69DB78012B08D17B690022DA7012
:105630007B6ADBB21946786809F012FC7B6A5A0172
:10564000FB69134403F530631A46022393603B69F8
:1056500003F02003002B08D07B6A5A01FB69134436
:1056600003F530631A46202393603B6903F400532B
:10567000002B09D07B6A5A01FB69134403F53063A0
:105680001A464FF4005393607B6A01337B62BB6A16
:105690005B08BB62BB6A002B7FF462AF7B681B6850
:1056A000184606F041FF034603F48023B3F5802F2C
:1056B00040F0DB807B681B68184606F062FFB8622A
:1056C00000237B62CDE0BB6A03F00103002B00F0F6
:1056D000C2807B681B687A6AD2B21146184606F00F
:1056E00088FF38613B6903F00103002B57D07B6AC8
:1056F00003F00F03012202FA03F3FB60FB6903F5D9
:1057000000635A6BFB68DB43F96901F500611340E4
:105710004B637B6A5A01FB69134403F510631A4615
:10572000012393607B689B79012B32D179687A6A77
:105730001346DB0013449B000B4420331968786840
:105740007A6A1346DB0013449B0003441C331B6836
:10575000194478687A6A1346DB0013449B000344BB
:10576000203319607B6A002B13D179687A6A13465B
:10577000DB0013449B000B4424331B68002B08D12F
:105780007B6818687B6803F29C431A46012106F087
:1057900091FF7B6ADBB21946786809F0DCFA3B6955
:1057A00003F00803002B08D07B6A5A01FB691344FD
:1057B00003F510631A46082393603B6903F0100356
:1057C000002B08D07B6A5A01FB69134403F5106370
:1057D0001A46102393603B6903F04003002B08D066
:1057E0007B6A5A01FB69134403F510631A46402390
:1057F00093603B6903F00203002B23D0796A386A77
:1058000005F074FF7A6A1346DB0013449B001033E3
:105810007A68134404337B617B69DB78012B08D100
:105820007B690022DA707B6ADBB21946786809F07E
:1058300029FB7B6A5A01FB69134403F510631A467E
:10584000022393603B6903F08003002B03D0796A45
:10585000786800F0E8FC7B6A01337B62BB6A5B0816
:10586000BB62BB6A002B7FF42EAF7B681B681846B7
:1058700006F05AFE034603F00043B3F1004F22D175
:10588000FB6903F500635B68FA6902F5006223F0C7
:10589000010353607B6893F8CC34012B08D17B68FB
:1058A000002283F8CC240021786809F0A7FC02E0EC
:1058B000786809F0C7FA7B681B685A697B681B68BF
:1058C00002F000425A617B681B68184606F02CFE05
:1058D000034603F40063B3F5006F12D1FB6903F5CF
:1058E00000639B6803F00103012B02D1786809F083
:1058F00083FA7B681B685A697B681B6802F4006244
:105900005A617B681B68184606F00EFE034603F0DA
:105910000063B3F1006F21D17B681B685A697B6813
:105920001B6802F000625A617B6893F8CC34002B4C
:1059300011D17B68012283F8CC247B681B685B6DE6
:105940009B0803F00F027B68C3F8D024012178681C
:1059500009F054FC02E0786809F04EFA7B681B6895
:10596000184606F0E1FD034603F48053B3F5805F6B
:1059700040F0B780FB6903F500635B68FA6902F5E4
:10598000006223F0010353607B681B6810211846F6
:1059900005F0ACFE0023FB6246E0FB6A5A01FB699E
:1059A000134403F510631A464FF67F339360FB6A86
:1059B0005A01FB69134403F510631B68FA6A51012D
:1059C000FA690A4402F5106223F400131360FB6ABB
:1059D0005A01FB69134403F530631A464FF67F33CF
:1059E0009360FB6A5A01FB69134403F530631B683B
:1059F000FA6A5101FA690A4402F5306223F400138D
:105A00001360FB6A5A01FB69134403F530631B689A
:105A1000FA6A5101FA690A4402F5306243F0006300
:105A20001360FB6A0133FB627B681B791A46FB6AD1
:105A30009342B2D3FB6903F50063DB69FA6902F5AF
:105A4000006243F00113D3617B68DB7B002B16D02F
:105A5000FB6903F50063D3F88430FA6902F500624C
:105A600043F00B03C2F88430FB6903F500635B6C01
:105A7000FA6902F5006243F00B03536415E0FB6919
:105A800003F500635A69FB6903F50063194642F2A6
:105A90002B0313434B61FB6903F500631B69FA6930
:105AA00002F5006243F00B031361FB6903F5006329
:105AB0001B68FA6902F5006223F4FE6313607B68D9
:105AC00018687B6899797B6803F29C431A4606F054
:105AD000F1FD7B681B685A697B681B6802F4805281
